{
  "_format": "hh-sol-artifact-1",
  "contractName": "FraudDetection",
  "sourceName": "contracts/FraudDetection.sol",
  "abi": [
    {
      "anonymous": false,
      "inputs": [
        {
          "indexed": true,
          "internalType": "bytes32",
          "name": "modelId",
          "type": "bytes32"
        }
      ],
      "name": "ModelActivated",
      "type": "event"
    },
    {
      "anonymous": false,
      "inputs": [
        {
          "indexed": true,
          "internalType": "bytes32",
          "name": "modelId",
          "type": "bytes32"
        }
      ],
      "name": "ModelDeactivated",
      "type": "event"
    },
    {
      "anonymous": false,
      "inputs": [
        {
          "indexed": true,
          "internalType": "bytes32",
          "name": "modelId",
          "type": "bytes32"
        },
        {
          "indexed": false,
          "internalType": "string",
          "name": "modelType",
          "type": "string"
        },
        {
          "indexed": false,
          "internalType": "address",
          "name": "registeredBy",
          "type": "address"
        }
      ],
      "name": "ModelRegistered",
      "type": "event"
    },
    {
      "anonymous": false,
      "inputs": [
        {
          "indexed": true,
          "internalType": "bytes32",
          "name": "predictionId",
          "type": "bytes32"
        },
        {
          "indexed": false,
          "internalType": "bool",
          "name": "isFraud",
          "type": "bool"
        },
        {
          "indexed": false,
          "internalType": "uint256",
          "name": "confidence",
          "type": "uint256"
        },
        {
          "indexed": false,
          "internalType": "address",
          "name": "submittedBy",
          "type": "address"
        }
      ],
      "name": "PredictionRecorded",
      "type": "event"
    },
    {
      "inputs": [
        {
          "internalType": "bytes32",
          "name": "modelId",
          "type": "bytes32"
        }
      ],
      "name": "activateModel",
      "outputs": [],
      "stateMutability": "nonpayable",
      "type": "function"
    },
    {
      "inputs": [
        {
          "internalType": "bytes32",
          "name": "modelId",
          "type": "bytes32"
        }
      ],
      "name": "deactivateModel",
      "outputs": [],
      "stateMutability": "nonpayable",
      "type": "function"
    },
    {
      "inputs": [
        {
          "internalType": "bytes32",
          "name": "predictionId",
          "type": "bytes32"
        }
      ],
      "name": "getPrediction",
      "outputs": [
        {
          "internalType": "uint256",
          "name": "timestamp",
          "type": "uint256"
        },
        {
          "internalType": "bool",
          "name": "isFraud",
          "type": "bool"
        },
        {
          "internalType": "uint256",
          "name": "confidence",
          "type": "uint256"
        },
        {
          "internalType": "string",
          "name": "transactionData",
          "type": "string"
        },
        {
          "internalType": "address",
          "name": "submittedBy",
          "type": "address"
        }
      ],
      "stateMutability": "view",
      "type": "function"
    },
    {
      "inputs": [],
      "name": "getPredictionCount",
      "outputs": [
        {
          "internalType": "uint256",
          "name": "",
          "type": "uint256"
        }
      ],
      "stateMutability": "view",
      "type": "function"
    },
    {
      "inputs": [
        {
          "internalType": "uint256",
          "name": "index",
          "type": "uint256"
        }
      ],
      "name": "getPredictionIdAtIndex",
      "outputs": [
        {
          "internalType": "bytes32",
          "name": "",
          "type": "bytes32"
        }
      ],
      "stateMutability": "view",
      "type": "function"
    },
    {
      "inputs": [
        {
          "internalType": "uint256",
          "name": "",
          "type": "uint256"
        }
      ],
      "name": "modelIds",
      "outputs": [
        {
          "internalType": "bytes32",
          "name": "",
          "type": "bytes32"
        }
      ],
      "stateMutability": "view",
      "type": "function"
    },
    {
      "inputs": [
        {
          "internalType": "bytes32",
          "name": "",
          "type": "bytes32"
        }
      ],
      "name": "models",
      "outputs": [
        {
          "internalType": "string",
          "name": "modelType",
          "type": "string"
        },
        {
          "internalType": "string",
          "name": "modelHash",
          "type": "string"
        },
        {
          "internalType": "string",
          "name": "datasetHash",
          "type": "string"
        },
        {
          "internalType": "string",
          "name": "performanceMetrics",
          "type": "string"
        },
        {
          "internalType": "uint256",
          "name": "timestamp",
          "type": "uint256"
        },
        {
          "internalType": "address",
          "name": "registeredBy",
          "type": "address"
        },
        {
          "internalType": "bool",
          "name": "isActive",
          "type": "bool"
        }
      ],
      "stateMutability": "view",
      "type": "function"
    },
    {
      "inputs": [
        {
          "internalType": "uint256",
          "name": "",
          "type": "uint256"
        }
      ],
      "name": "predictionIds",
      "outputs": [
        {
          "internalType": "bytes32",
          "name": "",
          "type": "bytes32"
        }
      ],
      "stateMutability": "view",
      "type": "function"
    },
    {
      "inputs": [
        {
          "internalType": "bytes32",
          "name": "",
          "type": "bytes32"
        }
      ],
      "name": "predictions",
      "outputs": [
        {
          "internalType": "uint256",
          "name": "timestamp",
          "type": "uint256"
        },
        {
          "internalType": "bool",
          "name": "isFraud",
          "type": "bool"
        },
        {
          "internalType": "uint256",
          "name": "confidence",
          "type": "uint256"
        },
        {
          "internalType": "string",
          "name": "transactionData",
          "type": "string"
        },
        {
          "internalType": "address",
          "name": "submittedBy",
          "type": "address"
        }
      ],
      "stateMutability": "view",
      "type": "function"
    },
    {
      "inputs": [
        {
          "internalType": "bool",
          "name": "isFraud",
          "type": "bool"
        },
        {
          "internalType": "uint256",
          "name": "confidence",
          "type": "uint256"
        },
        {
          "internalType": "string",
          "name": "transactionData",
          "type": "string"
        }
      ],
      "name": "recordPrediction",
      "outputs": [
        {
          "internalType": "bytes32",
          "name": "",
          "type": "bytes32"
        }
      ],
      "stateMutability": "nonpayable",
      "type": "function"
    },
    {
      "inputs": [
        {
          "internalType": "string",
          "name": "modelType",
          "type": "string"
        },
        {
          "internalType": "string",
          "name": "modelHash",
          "type": "string"
        },
        {
          "internalType": "string",
          "name": "datasetHash",
          "type": "string"
        },
        {
          "internalType": "string",
          "name": "performanceMetrics",
          "type": "string"
        }
      ],
      "name": "registerModel",
      "outputs": [
        {
          "internalType": "bytes32",
          "name": "",
          "type": "bytes32"
        }
      ],
      "stateMutability": "nonpayable",
      "type": "function"
    }
  ],
  "bytecode": "0x608060405234801561001057600080fd5b50611937806100206000396000f3fe608060405234801561001057600080fd5b50600436106100a95760003560e01c80635f6e691e116100715780635f6e691e1461017c578063952f609514610198578063c6b959a3146101c8578063dc6423ab146101f8578063e236f46b1461022c578063f354293714610262576100a9565b806301668096146100ae578063047af67f146100cc57806319e2a109146100e857806346cf02d7146101185780635d9eaeaf14610148575b600080fd5b6100b6610292565b6040516100c39190611508565b60405180910390f35b6100e660048036038101906100e19190611041565b61029f565b005b61010260048036038101906100fd919061112d565b6103f8565b60405161010f91906113b2565b60405180910390f35b610132600480360381019061012d919061112d565b61041c565b60405161013f91906113b2565b60405180910390f35b610162600480360381019061015d9190611041565b6104b1565b604051610173959493929190611523565b60405180910390f35b61019660048036038101906101919190611041565b61059c565b005b6101b260048036038101906101ad919061112d565b6106f5565b6040516101bf91906113b2565b60405180910390f35b6101e260048036038101906101dd919061106a565b610719565b6040516101ef91906113b2565b60405180910390f35b610212600480360381019061020d9190611041565b610902565b604051610223959493929190611523565b60405180910390f35b61024660048036038101906102419190611041565b610a70565b60405161025997969594939291906113fd565b60405180910390f35b61027c60048036038101906102779190610fda565b610cff565b60405161028991906113b2565b60405180910390f35b6000600380549050905090565b3373ffffffffffffffffffffffffffffffffffffffff1660008083815260200190815260200160002060050160009054906101000a900473ffffffffffffffffffffffffffffffffffffffff1673ffffffffffffffffffffffffffffffffffffffff1614610342576040517f08c379a000000000000000000000000000000000000000000000000000000000815260040161033990611488565b60405180910390fd5b6000806000838152602001908152602001600020600401541161039a576040517f08c379a0000000000000000000000000000000000000000000000000000000008152600401610391906114a8565b60405180910390fd5b600080600083815260200190815260200160002060050160146101000a81548160ff021916908315150217905550807f77731f8c28ec1f1515adfd0a49782a0c50fa7dd8f930387223709879f318505e60405160405180910390a250565b6002818154811061040857600080fd5b906000526020600020016000915090505481565b60006003805490508210610465576040517f08c379a000000000000000000000000000000000000000000000000000000000815260040161045c906114e8565b60405180910390fd5b6003828154811061049f577f4e487b7100000000000000000000000000000000000000000000000000000000600052603260045260246000fd5b90600052602060002001549050919050565b60016020528060005260406000206000915090508060000154908060010160009054906101000a900460ff16908060020154908060030180546104f39061168e565b80601f016020809104026020016040519081016040528092919081815260200182805461051f9061168e565b801561056c5780601f106105415761010080835404028352916020019161056c565b820191906000526020600020905b81548152906001019060200180831161054f57829003601f168201915b5050505050908060040160009054906101000a900473ffffffffffffffffffffffffffffffffffffffff16905085565b3373ffffffffffffffffffffffffffffffffffffffff1660008083815260200190815260200160002060050160009054906101000a900473ffffffffffffffffffffffffffffffffffffffff1673ffffffffffffffffffffffffffffffffffffffff161461063f576040517f08c379a0000000000000000000000000000000000000000000000000000000008152600401610636906114c8565b60405180910390fd5b60008060008381526020019081526020016000206004015411610697576040517f08c379a000000000000000000000000000000000000000000000000000000000815260040161068e906114a8565b60405180910390fd5b600160008083815260200190815260200160002060050160146101000a81548160ff021916908315150217905550807f813d6799442eec6b0cb39b9b28654fe74ec2d0aa09bd745d6dbb54873ad7c39f60405160405180910390a250565b6003818154811061070557600080fd5b906000526020600020016000915090505481565b6000808585854233604051602001610735959493929190611328565b6040516020818303038152906040528051906020012090506040518060e001604052808781526020018681526020018581526020018481526020014281526020013373ffffffffffffffffffffffffffffffffffffffff1681526020016000151581525060008083815260200190815260200160002060008201518160000190805190602001906107c7929190610e90565b5060208201518160010190805190602001906107e4929190610e90565b506040820151816002019080519060200190610801929190610e90565b50606082015181600301908051906020019061081e929190610e90565b506080820151816004015560a08201518160050160006101000a81548173ffffffffffffffffffffffffffffffffffffffff021916908373ffffffffffffffffffffffffffffffffffffffff16021790555060c08201518160050160146101000a81548160ff0219169083151502179055509050506002819080600181540180825580915050600190039060005260206000200160009091909190915055807f0757192c6e2da4ffdabd8f670be21880530f41341746c2d618612b87ef7a9d0d87336040516108ee9291906113cd565b60405180910390a280915050949350505050565b60008060006060600080600160008881526020019081526020016000206040518060a0016040529081600082015481526020016001820160009054906101000a900460ff16151515158152602001600282015481526020016003820180546109699061168e565b80601f01602080910402602001604051908101604052809291908181526020018280546109959061168e565b80156109e25780601f106109b7576101008083540402835291602001916109e2565b820191906000526020600020905b8154815290600101906020018083116109c557829003601f168201915b505050505081526020016004820160009054906101000a900473ffffffffffffffffffffffffffffffffffffffff1673ffffffffffffffffffffffffffffffffffffffff1673ffffffffffffffffffffffffffffffffffffffff1681525050905080600001518160200151826040015183606001518460800151955095509550955095505091939590929450565b6000602052806000526040600020600091509050806000018054610a939061168e565b80601f0160208091040260200160405190810160405280929190818152602001828054610abf9061168e565b8015610b0c5780601f10610ae157610100808354040283529160200191610b0c565b820191906000526020600020905b815481529060010190602001808311610aef57829003601f168201915b505050505090806001018054610b219061168e565b80601f0160208091040260200160405190810160405280929190818152602001828054610b4d9061168e565b8015610b9a5780601f10610b6f57610100808354040283529160200191610b9a565b820191906000526020600020905b815481529060010190602001808311610b7d57829003601f168201915b505050505090806002018054610baf9061168e565b80601f0160208091040260200160405190810160405280929190818152602001828054610bdb9061168e565b8015610c285780601f10610bfd57610100808354040283529160200191610c28565b820191906000526020600020905b815481529060010190602001808311610c0b57829003601f168201915b505050505090806003018054610c3d9061168e565b80601f0160208091040260200160405190810160405280929190818152602001828054610c699061168e565b8015610cb65780601f10610c8b57610100808354040283529160200191610cb6565b820191906000526020600020905b815481529060010190602001808311610c9957829003601f168201915b5050505050908060040154908060050160009054906101000a900473ffffffffffffffffffffffffffffffffffffffff16908060050160149054906101000a900460ff16905087565b6000808484844233604051602001610d1b9594939291906112cd565b6040516020818303038152906040528051906020012090506040518060a0016040528042815260200186151581526020018581526020018481526020013373ffffffffffffffffffffffffffffffffffffffff16815250600160008381526020019081526020016000206000820151816000015560208201518160010160006101000a81548160ff021916908315150217905550604082015181600201556060820151816003019080519060200190610dd5929190610e90565b5060808201518160040160006101000a81548173ffffffffffffffffffffffffffffffffffffffff021916908373ffffffffffffffffffffffffffffffffffffffff1602179055509050506003819080600181540180825580915050600190039060005260206000200160009091909190915055807f7080c8d66e0bb6975238607fe3e2fc56fb610bde1296fc2a1ff96289f2faa2c2868633604051610e7d9392919061137b565b60405180910390a2809150509392505050565b828054610e9c9061168e565b90600052602060002090601f016020900481019282610ebe5760008555610f05565b82601f10610ed757805160ff1916838001178555610f05565b82800160010185558215610f05579182015b82811115610f04578251825591602001919060010190610ee9565b5b509050610f129190610f16565b5090565b5b80821115610f2f576000816000905550600101610f17565b5090565b6000610f46610f41846115a2565b61157d565b905082815260208101848484011115610f5e57600080fd5b610f6984828561164c565b509392505050565b600081359050610f80816118bc565b92915050565b600081359050610f95816118d3565b92915050565b600082601f830112610fac57600080fd5b8135610fbc848260208601610f33565b91505092915050565b600081359050610fd4816118ea565b92915050565b600080600060608486031215610fef57600080fd5b6000610ffd86828701610f71565b935050602061100e86828701610fc5565b925050604084013567ffffffffffffffff81111561102b57600080fd5b61103786828701610f9b565b9150509250925092565b60006020828403121561105357600080fd5b600061106184828501610f86565b91505092915050565b6000806000806080858703121561108057600080fd5b600085013567ffffffffffffffff81111561109a57600080fd5b6110a687828801610f9b565b945050602085013567ffffffffffffffff8111156110c357600080fd5b6110cf87828801610f9b565b935050604085013567ffffffffffffffff8111156110ec57600080fd5b6110f887828801610f9b565b925050606085013567ffffffffffffffff81111561111557600080fd5b61112187828801610f9b565b91505092959194509250565b60006020828403121561113f57600080fd5b600061114d84828501610fc5565b91505092915050565b61115f816115fa565b82525050565b611176611171826115fa565b6116f1565b82525050565b6111858161160c565b82525050565b61119c6111978261160c565b611703565b82525050565b6111ab81611618565b82525050565b60006111bc826115d3565b6111c681856115de565b93506111d681856020860161165b565b6111df816117a1565b840191505092915050565b60006111f5826115d3565b6111ff81856115ef565b935061120f81856020860161165b565b80840191505092915050565b6000611228602a836115de565b9150611233826117cc565b604082019050919050565b600061124b6014836115de565b91506112568261181b565b602082019050919050565b600061126e6028836115de565b915061127982611844565b604082019050919050565b60006112916013836115de565b915061129c82611893565b602082019050919050565b6112b081611642565b82525050565b6112c76112c282611642565b611727565b82525050565b60006112d9828861118b565b6001820191506112e982876112b6565b6020820191506112f982866111ea565b915061130582856112b6565b6020820191506113158284611165565b6014820191508190509695505050505050565b600061133482886111ea565b915061134082876111ea565b915061134c82866111ea565b915061135882856112b6565b6020820191506113688284611165565b6014820191508190509695505050505050565b6000606082019050611390600083018661117c565b61139d60208301856112a7565b6113aa6040830184611156565b949350505050565b60006020820190506113c760008301846111a2565b92915050565b600060408201905081810360008301526113e781856111b1565b90506113f66020830184611156565b9392505050565b600060e0820190508181036000830152611417818a6111b1565b9050818103602083015261142b81896111b1565b9050818103604083015261143f81886111b1565b9050818103606083015261145381876111b1565b905061146260808301866112a7565b61146f60a0830185611156565b61147c60c083018461117c565b98975050505050505050565b600060208201905081810360008301526114a18161121b565b9050919050565b600060208201905081810360008301526114c18161123e565b9050919050565b600060208201905081810360008301526114e181611261565b9050919050565b6000602082019050818103600083015261150181611284565b9050919050565b600060208201905061151d60008301846112a7565b92915050565b600060a08201905061153860008301886112a7565b611545602083018761117c565b61155260408301866112a7565b818103606083015261156481856111b1565b90506115736080830184611156565b9695505050505050565b6000611587611598565b905061159382826116c0565b919050565b6000604051905090565b600067ffffffffffffffff8211156115bd576115bc611772565b5b6115c6826117a1565b9050602081019050919050565b600081519050919050565b600082825260208201905092915050565b600081905092915050565b600061160582611622565b9050919050565b60008115159050919050565b6000819050919050565b600073ffffffffffffffffffffffffffffffffffffffff82169050919050565b6000819050919050565b82818337600083830152505050565b60005b8381101561167957808201518184015260208101905061165e565b83811115611688576000848401525b50505050565b600060028204905060018216806116a657607f821691505b602082108114156116ba576116b9611743565b5b50919050565b6116c9826117a1565b810181811067ffffffffffffffff821117156116e8576116e7611772565b5b80604052505050565b60006116fc82611715565b9050919050565b600061170e82611731565b9050919050565b6000611720826117bf565b9050919050565b6000819050919050565b600061173c826117b2565b9050919050565b7f4e487b7100000000000000000000000000000000000000000000000000000000600052602260045260246000fd5b7f4e487b7100000000000000000000000000000000000000000000000000000000600052604160045260246000fd5b6000601f19601f8301169050919050565b60008160f81b9050919050565b60008160601b9050919050565b7f4f6e6c7920746865206d6f64656c207265676973747261722063616e2064656160008201527f6374697661746520697400000000000000000000000000000000000000000000602082015250565b7f4d6f64656c20646f6573206e6f74206578697374000000000000000000000000600082015250565b7f4f6e6c7920746865206d6f64656c207265676973747261722063616e2061637460008201527f6976617465206974000000000000000000000000000000000000000000000000602082015250565b7f496e646578206f7574206f6620626f756e647300000000000000000000000000600082015250565b6118c58161160c565b81146118d057600080fd5b50565b6118dc81611618565b81146118e757600080fd5b50565b6118f381611642565b81146118fe57600080fd5b5056fea2646970667358221220fde3ea5dec0cc21836f32809e99513ec5c843f1002ed83ae59f5cec35efd7f1864736f6c63430008040033",
  "linkReferences": {},
  "deployedLinkReferences": {}
}